:100000000C942A000C9447000C9447000C94470071
:100010000C9447000C9447000C9447000C942E015C
:100020000C9447000C9447000C9447000C949D00DE
:100030000C9447000C9447000C9447000C94470024
:100040000C9447000C9447000C9447000C94470014
:100050000C94470011241FBECFE5D8E0DEBFCDBF12
:1000600010E0A0E6B0E0E4E2F4E002C005900D92FA
:10007000A038B107D9F720E0A0E8B0E001C01D9298
:10008000A738B207E1F70E943D010C9410020C94CE
:100090000000E82FF0E0E059FF4F8081809582BB9F
:1000A000E62FF0E0EC58FF4F80818BBB0895E0E035
:1000B000F0E0E430F105F4F581E090E00E2E02C0AE
:1000C000880F991F0A94E2F7809585BB8FE99FE01E
:1000D0000197F1F700C0000060E070E06430710546
:1000E0003CF543B380E190E09C01062E02C0220F54
:1000F000331F0A94E2F7842F90E080959095822335
:100100009323181619068CF48FE99FE00197F1F7F5
:1001100000C00000660F771F660F771F605A7F4F81
:10012000E60FF71F808190E008956F5F7F4FD6CF75
:100130003196BFCF83E690E008951F920F920FB6DD
:100140000F9211242F933F934F935F936F937F935D
:100150008F939F93AF93BF93EF93FF93809185000D
:100160008130D9F030F0823091F1833009F443C00E
:100170005BC0909183006DEC969F612D1124669574
:1001800066956695660F862F880F880F680F961BF9
:10019000692F80E00E94490047C0809183006DEC88
:1001A000869F812D1124869586958695869F612D43
:1001B0001124669566956695660F962F990F990F8F
:1001C000690F861B682F81E00E9449002DC0909125
:1001D00084006DEC969F612D112466956695669559
:1001E000660F862F880F880F680F961B692F82E095
:1001F0000E94490019C0809184006DEC869F812D7A
:100200001124869586958695869F612D1124669585
:1002100066956695660F962F990F990F690F861B45
:10022000682F83E00E944900809185008F5F809352
:100230008500843010F010928500FF91EF91BF91FE
:10024000AF919F918F917F916F915F914F913F916E
:100250002F910F900FBE0F901F9018951F920F9225
:100260000FB60F9211248F9381E0809386008F91B7
:100270000F900FBE0F901F9018958FEF8ABB9FE0D5
:1002800091BB94BB90EF95BB87BB88BB84E083BFD9
:1002900089B7816089BF8DE08EBD88E09DE39BBDFD
:1002A0008ABD89B7806189BF78940E9457000A97F8
:1002B00041F481E0809382000E94570083369105CB
:1002C000D9F70E9457000B9739F4109282000E94D0
:1002D000570083369105D9F780918200882349F130
:1002E0000E945700019751F4809184008F5F8093A2
:1002F00084000E94570083369105D9F70E94570069
:10030000039751F4809183008F5F809383000E9454
:10031000570083369105D9F70E945700892B49F47D
:1003200010928400109283000E945700833691053A
:10033000D9F780918200811117C00E9457000F9752
:1003400041F481E0809381000E945700833691053B
:10035000D9F70E9457000C9739F4109281000E943F
:10036000570083369105D9F7809181008823B9F130
:1003700080918600882341F0809183008150809392
:10038000830010928600F4CF9091830080918400C6
:1003900021E09D3308F420E0222349F021E081117F
:1003A00001C020E0222319F08150809384009D3306
:1003B00018F08BE38093830081E09091830091118A
:1003C00080E0882361F081E090918400911180E0C9
:1003D000882329F01092810081E080938000809131
:1003E0008000882309F461CF18BA2FEF81EE94E0E2
:1003F000215080409040E1F700C000008FEF88BBA3
:100400002FEF81EE94E0215080409040E1F700C052
:1004100000000E945700449714F710928000DFCF2D
:04042000F894FFCF7E
:100424000102030A0405060B0708090C0D000E0F50
:1004340001020408C0F9A4B0999282F88090FF00E8
:00000001FF
